:020000040800F2
:1000000090070020D9010008A1210008D120000894
:100010009D21000801150008D525000800000000FA
:10002000000000000000000000000000C9250008DA
:100030004D17000800000000C5250008CD25000868
:10004000F3010008F3010008F3010008F3010008C0
:10005000F3010008F3010008F3010008F3010008B0
:10006000F3010008F3010008F3010008F3010008A0
:10007000F3010008F3010008F3010008F301000890
:10008000F3010008F3010008F3010008F301000880
:10009000F3010008F3010008F3010008F301000870
:1000A000F3010008F3010008F3010008F301000860
:1000B000F3010008F3010008F3010008F301000850
:1000C000F3010008F3010008F3010008F301000840
:1000D000F3010008F3010008F3010008F301000830
:1000E000F3010008F3010008F301000800F002F832
:1000F00000F063F814A696E8000CB244B344DA4565
:1001000001D100F05AF8BAE80F000FA696E83000C7
:10011000A5EB040504EB0607AAEB0704A7F101070A
:100120004FEA15154FEA3414A4F10104AC4201D38F
:1001300000F043F813F0010F18BFFB1A43F001035E
:1001400000F001F8DBE718471846000038460000C9
:10015000103A24BF78C878C1FAD8520724BF30C8F3
:1001600030C144BF04680C60704700007047000055
:100170000023002400250026103A28BF78C1FBD8B0
:10018000520728BF30C148BF0B607047672903F092
:100190000587002070471FB500F034FB04000020E5
:1001A000002103F093F9401C60600020002103F05F
:1001B00077F9E0601FBD10B510BD00F04BFC114693
:1001C000FFF7E9FF02F09AFB00F0EEFE03B4FFF741
:1001D000F2FF03BC01F07EF9094880470948004757
:1001E000FEE7FEE7FEE7FEE7FEE7FEE7FEE7FEE7E7
:1001F000FEE7FEE704480549054A064B7047000044
:10020000D1250008ED000008900100209007002093
:1002100090030020900300200FB41CB5074B06AAE2
:100220007B4469460090059800F07BFA00206946FF
:1002300000F08AFA1CBC5DF814FB000025050000E4
:100240002DE9F0410E460446002020622046E16878
:10025000884730B3252805D0D4E901219047206A8A
:10026000401CF2E7E168204600278847050018D0C7
:10027000A5F14100192802D820354FF40067324615
:10028000294620462760FFF781FF40B1012804D0AE
:10029000F61D26F007060836D8E7361DD6E72846AD
:1002A000DAE7206ABDE8F0814FF0000200B513469E
:1002B00094469646203922BFA0E80C50A0E80C5086
:1002C000B1F12001BFF4F7AF090728BFA0E80C5037
:1002D00048BF0CC05DF804EB890028BF40F8042B30
:1002E00008BF704748BF20F8022B11F0804F18BF9D
:1002F00000F8012B70477047704770472DE9FF4F9A
:100300000C461E464FF0FF378BB0D2E90001DDF8F6
:1003100060800A908A46C1F30A5505B93D4600211E
:1003200008464FF00000BAF1000F00F4400005DA73
:1003300000EB80004FF4400101EA50004FEA905971
:10034000B9F1010F00DDB9460A9850EA4A000ED013
:1003500044F61050A5F2FF3545432F14B8F1000FB5
:100360001ED07542291E1EDDC9F100021CE0B8F145
:10037000010F4FF0000001D0302103E0F24305E00F
:100380002154401CB042FBDB3046002200212154A6
:100390000B99C1F80880C1E900200FB0BDE8F08FCB
:1003A000BD1B6D1CDEE74A4600DA694206A800F074
:1003B000DBFA06AB93E8070003AB83E8070050467F
:1003C0000A9902F027FB8DE80700A0F500501F38BE
:1003D00000900398002D0ADD42F21F014A460844AE
:1003E000002303A90390684602F0D2FD09E0A0F5BE
:1003F00000504A461F38002303A90390684602F0C4
:10040000F1FD8DE807000004000C03D04FF0FF3031
:10041000410800E01046B8F1000F03D0002200921E
:1004200015461EE0751E05D400F0F0F93032625515
:100430006D1EF9D5B3460122084302D000227F1C6D
:1004400004E02078302801D100227F1E002A09977D
:1004500084D01DE0112D07DA00F0D8F93032625552
:100460006D1C50EA0102F5D1084302D00098C8B1D2
:100470000EE00021681E05E0235C625C6354225498
:10048000401E491C8142F7DBAB46A81B401E099069
:10049000002004F80B000B98099AC0F80880C0E906
:1004A000002B7AE711264FF0000857E72DE9F04FAF
:1004B00088460446D21D22F0070191B0D1E900011F
:1004C000CDE90A0102F0DAFE02460B98C00F01D016
:1004D0002D2007E02068810701D52B2002E0202194
:1004E00001EAC000032A099001D0072A05DB034670
:1004F0004146204600F0D8F90BE12078800601D56E
:10050000E06900E00620B8F1650F814606D0B8F139
:10051000660F18D0B8F1670F70D131E00020B9F143
:10052000110F009001DB112301E009F101030AAA78
:1005300001A90CA8FFF7E2FEDDE90C70002609F125
:100540000105834647E001204B4600904FF00047ED
:100550000AAA01A90CA8FFF7D1FEDDE90DB00C999C
:100560005D46002610B909F101000D18B9EB050030
:1005700003D4C0F1FF3609F10105A5EB09002BE01A
:10058000B9F1010F01DA4FF001090020B9F1110FA3
:100590000090484601DD112300E003460AAA01A9A4
:1005A0000CA8FFF7ABFEDDE90C704D460026834634
:1005B000207800070AD4AB4500DA5D4601A8012D7A
:1005C00004DD411911F8011C302907D04F4502DA2A
:1005D00017F1040F04DA012082460FE06D1EEEE7EA
:1005E000002F02DCED1B3E4403E0781CA84200DD36
:1005F0007D1CB81B00F1010A4FF00047207800076E
:1006000003D4AA4501DB4FF0FF3A0021B7F1004FB8
:100610000DF143088DF8431024D002202B23002F26
:1006200001DA7F422D230A21021EA0F1010000DC25
:100630005FB197FBF1FC97FBF1F201FB1C7C1746C5
:100640000CF1300C08F801CDEEE7A8F101000370C1
:100650002188090501D5452100E06521A0F10108A7
:1006600000F8011C09980FA9A1EB0807FF1D00B1B4
:100670000120411901EBEA70A1693844081A401EB3
:10068000A0612078C00602D42046AFF3008009980C
:1006900028B1D4E901219047206A401C20622078CB
:1006A000C00622D52046AFF300801EE0002E04DBFA
:1006B000B34502DD01A8805D00E03020D4E90121CE
:1006C0009047206A401C2062761CAAF101005FEA74
:1006D000000A0AD100F096F8C0680168405CD4E9CD
:1006E00001219047206A401C2062281EA5F10105C7
:1006F000DCDC07E0D4E9012118F8010B9047206AFF
:10070000401C2062381EA7F10107F3DC2046AFF33E
:100710000080032011B041E601694A1C026108789B
:10072000704700B58FB0CDE9013100210591054931
:100730007944CDE9031011466846FFF781FD0FB0FB
:1007400000BD0000E5FFFFFF0A6802F8010B0A6028
:10075000704700000FB40B0010B54FF000048AB0D2
:100760000FA900910E99CC60234C7C44234A7A4413
:10077000CDE9064200D004236FF00042CDE90132FA
:100780001F4A7A446B4608920246002003F068FC38
:100790000AB010BC5DF814FBF0B507464FF0FF300F
:1007A0001E4615460C463B4685B06A460091CDE98B
:1007B000010131460020049004A8FFF7CBFF049903
:1007C0000346601825B109B1024600E022462A60BE
:1007D00000290ED0002B02DD0099814209D03B4652
:1007E0006A463146001B0094CDE9010404A8FFF7D6
:1007F000B1FF05B0F0BD0000BB010000D501000055
:1008000011010000004870475000002030B5B0F1E1
:100810000A0271F100034FEA900E4EEA817EB0EBBE
:100820000E0061EB91014FEA101E4EEA017E10EBC3
:100830000E0041EB11114FEA102E4EEA016E10EB43
:100840000E0041EB11214FEA104E4EEA014E10EB23
:100850000E0041EB1141401841F100014FEAD00078
:1008600040EA41704FEAD1014FEA810444EA9074B2
:1008700010EB800544EB01046D1944EB0404521B9A
:10088000A3414FF0000348BF0A3200D530BD401CE1
:1008900041F1000130BD10B5044600F001F90068D7
:1008A000005D00F0010010BD2DE9F0411F46044637
:1008B00003260168072A01F4006004DB08B116A5CD
:1008C00005E016A503E008B115A500E015A521F087
:1008D00010002060A069C01EA0610FB1401EA06181
:1008E0002046AFF300804FB1D4E90121384690474C
:1008F000206A401C2062C01C206206E0206AFAE7E1
:10090000D4E9012115F8010B9047761EF8D2204654
:10091000AFF30080BDE8F0814E414E006E616E0085
:10092000494E4600696E6600426842B1016811F89E
:10093000013B23B1521EC0E9001218467047012145
:10094000C160881E704742685AB1C368016843B9E4
:1009500083688B4205D0491E521CC0E9001200205A
:1009600070474FF0FF3070472DE9F047814616463B
:100970008AB0354878440DC88DE80D003248784477
:10098000801C03AC0DC884E80D0041F69B30084480
:10099000372190FBF1F290FBF1F5A5F1800501FB09
:1009A00012041B3C02D56442012000E00020DFF865
:1009B00098A080460027FA44AAF1BE0A0EE0E0079C
:1009C0000AD03246684607EB470101230AEB810152
:1009D00002F008FB8DE8070064107F1C002CEED1AC
:1009E000194F7F44AE3F19E0E80715D007EB04101C
:1009F0000DF1180A90E80E008AE80E00C068F04277
:100A000001D1981908903246012306A903A802F0E3
:100A1000E9FA03AB83E807006D10641C002DE3D1F5
:100A20004FF0010332466946B8F1000F03A802D027
:100A300002F0AEFA01E002F0D5FAC9E90001C9F806
:100A400008200AB0BDE8F087A037000000487047D2
:100A5000300000207546FFF7F9FFAE4605006946F5
:100A6000534620F00700854618B020B5FFF7C2FBBB
:100A7000BDE820404FF000064FF000074FF000089F
:100A80004FF0000BAC46ACE8C009ACE8C009ACE8DC
:100A9000C009ACE8C00921F007018D46704700008D
:100AA00010B5FFF7AFFE001D10BD00BF212A0000EA
:100AB0002DE9FF4F06468BB00878FF2806D0491C69
:100AC0002D2805D000244FF0000908E000200CE09C
:100AD0000124F8E709EB8903491C00EB4309087876
:100AE000FF28F7D114B1C9F1000081461078002524
:100AF0002C46AA4629462D2801D02B2804D1521C69
:100B00002D2813D0002082468B461078FF280FD066
:100B10004FF0000C0A21521CA5FB017804FB018157
:100B200005FB0C11C5194BEB0104EEE70120EAE7C8
:100B3000002108464FF00000BAF1000F02D000EB90
:100B400080004008C0F38157012F01DD4FF0FF37CF
:100B50000E9955EA040009EB01080BD04FF0020989
:100B600018F5FA7F16DA4FEACA70002F706008DDB8
:100B7000012007E04FEACA70C6E900B00FB0BDE837
:100B8000F08F0020306000F059FAC0F80090182172
:100B9000084616E0B8F5FA7F18DD002F02DAF748AC
:100BA000784401E0F6487844D0E90010C6E9001026
:100BB00040EACA70706000F041FAC0F80090142159
:100BC00008460FB0BDE8F04F03F0E5B90021084634
:100BD0004FF00000B8F10001099002DAC7F10002FD
:100BE00000E03A4601DAC8F1000106A8FFF7BCFEB2
:100BF00006AB93E8070003AB83E8070044F23E002E
:100C00005BEA04010090584604D144F21E012C46D0
:100C10005D460091210C0904014306D1009924048A
:100C200044EA15442D041039009104F07F4101433A
:100C300006D10099240244EA15642D020839009176
:100C400004F07041014306D10099240144EA15746F
:100C50002D01091F009104F04041014306D1009984
:100C6000A40044EA9574AD00891E009104F000418F
:100C7000084304D100986D196441401E00904FF064
:100C800001033A466846B8F1000FCDE9014503A9D2
:100C900002DD02F0BCF901E002F08FF9BAF1000FB9
:100CA00004460D4601D084F00044002108464FF070
:100CB0000000099940F2FF77484010F00C0F07D16F
:100CC00024F00040284303D0C4F30A50B84212D1A4
:100CD00000F0B4F9C0F80090C4F30A50B8420AD149
:100CE000A8487844D0E90010C6E9001004F000419B
:100CF0000843706042E7C6E900543FE72DE9FF4F23
:100D00001F464FF0000A4FF0FF38454691B0D7E933
:100D10000146CDF83CA0FFF775FDC0680168405C56
:100D20001090B96912986D1C8847396A81468847C6
:100D30000028F6D1B9F1FF3F0AD0002E24F4D06488
:100D400011DDB9F12B0F08D0B9F12D0F0BD102E055
:100D5000404615B013E744F48064B96912986D1CDD
:100D60008847761E8146600504A901D52D2000E044
:100D70002B20002E01F1010B0DF130088DF8100031
:100D80003FDDB9F1690F08D0B9F1490F05D0B9F1CC
:100D90006E0F02D0B9F14E0F1CD13B4601A8009551
:100DA00080E85002DDE912126FF0020003F05CF9F6
:100DB000C11CCED10EE0B96912986D1C88478146DE
:100DC0001398761E44F4007405600F98401C002EA2
:100DD0000F9016DDB9F1300FEDD0B9F1780F02D0D8
:100DE000B9F1580F0DD10F9801280AD13B46CDE932
:100DF0000054DDE91212001F029603F033F9C11C02
:100E0000A7D1109989453ED144F0800406E013999A
:100E1000681CAAF1010A44F400740860B9696D1CE9
:100E20001298761E884730288146F0D02BE0109922
:100E3000894505D1200603D4761E44F0800418E0CD
:100E4000484602F0B0FA08B3761E0DF1230293452E
:100E5000A9F1300044F4007406D20BF8010B20060F
:100E600007D5AAF1010003E0200602D40AF101002F
:100E70008246A00502D51399681C0860B9691298CA
:100E80006D1C88478146002ED1DC53E0002E51DDD9
:100E9000B9F1650F02D0B9F1450F4BD1A00549D585
:100EA000B9696D1C1298761E24F440748847002E90
:100EB00081460CDD2B2804D0B9F12D0F07D144F465
:100EC0008074B96912986D1C8847761E8146E005CA
:100ED00001D52D2100E02B2108F8011BCDF8008061
:100EE00021E0761E0DF13901884544F400740CD2DE
:100EF000A9F1300010F0FF0088F8000002D100993D
:100F0000884509D908F1010806E0E00501D51E4829
:100F100001E042F20F708246B96912986D1C884751
:100F2000814613980560002E04DD484602F03BFA26
:100F30000028D6D1F96912988847FF2053468BF8CC
:100F4000000088F8000000200A900B9004AA0CA969
:100F50000AA8FFF7ADFDA00502D46FF00100F8E686
:100F600014F0240F12D0E0071CD13868DDE90A1212
:100F7000031D3B600068C0E9001213E0E43B000081
:100F8000D63B00009A3A0000F1D8FFFF0AA9684654
:100F900002F098F9E00705D13868009A011D396020
:100FA000006802602846D4E610B50446AFF300801E
:100FB0002046BDE81040FFF709B900004FF0013CA2
:100FC00050F8042B51F8043B9A4221D1A2EB0C03B8
:100FD000934313EACC1317D150F8042B51F8043B78
:100FE0009A4215D1A2EB0C03934313EACC130BD115
:100FF00050F8042B51F8043B9A4209D1A2EB0C03A0
:10100000934313EACC13DBD04FF00000704700BFCE
:10101000D01A01BAB1FA81F101F0180122FA01F0F7
:10102000CB40DBB2C0B2C01AC1F120012CFA01F3EF
:10103000D11A914311EAC311E6D1704700487047B5
:1010400030000020B2F120030AD5C2F1200301FADA
:1010500002F120FA03F341EA030100FA02F07047BB
:1010600000FA03F14FF00000704710B5FFF7E6FFFC
:10107000006810BD10B50446FFF7E0FF046010BD26
:101080002DE9FF4F1F464FF03C0987B04FF000425B
:10109000DDE9141001F10108DDF858A002EA405022
:1010A0000390002005908346054604460490B969E4
:1010B000461E08988847AAF1010A0290BAF1000F6B
:1010C0003BDD02982E2815D0102100F009FA0028E7
:1010D0002EDB4FF0010B0599014317D0B9F1000F3A
:1010E0000BDB4A46C117FFF7ADFF05430C43A9F1DF
:1010F000040905E0012004900BE008B145F001056A
:1011000001200590049820B9361D02E0049800B132
:10111000361FB969089808F101088847BBF1000F2C
:10112000AAF1010A0290C9D00999C1F80080C5E767
:101130000298702808D0502806D0F9690898884786
:10114000BBF1000F14D04FE0002002900120BBF152
:10115000000F049009D0B969089808F10108884780
:10116000AAF10109B9F1000F07DCF969089888476D
:101170006FF001000BB0BDE8F08F2B2804D02D28B4
:101180000CD14FF0FF300490B969089808F10108BC
:101190008847A9F10109B9F1000FE6DD411CE4D04F
:1011A0000A2100F09DF90028DFDB029908F101080F
:1011B00001EB810100EB41000290B9690898884772
:1011C0000A2100F08DF9099AA9F10109B9F1000F7E
:1011D000C2F8008001DD0028E7DAF969089888473D
:1011E0000499029800FB016655EA040004D004F05B
:1011F0004041090002D006E0039898E0A40044EAC8
:101200009574AD00B61E04F00041080002D16D19BE
:101210006441761E159810F0240F03D04FF00B098F
:101220005C4803E04FF028096FF07D008246564588
:1012300007DAAAEB06018944B9F1410F01DD4FF04D
:10124000410901200021A9F10102FFF7FBFE02463E
:1012500028400B462140084301D0012100E0002135
:10126000501E029143F1FF3128402140084301D034
:10127000012000E000200299834651EA0B014FD083
:10128000002108464FF00000039900F4400039B1F6
:1012900000EB80004FF4400100EBD07001EA6000E9
:1012A0008015012802DD4FF0FF3000E013D0401C14
:1012B00036D0029860B3BBF1000F0CD14A46012032
:1012C0000021FFF7BFFE28402140084301D0012044
:1012D00000E00020E0B101204A460021FFF7B2FE05
:1012E000034640190A4661412D1A8C4111D3B9F1C8
:1012F000400F09DD159810F0240F02D0AAF1340632
:1013000003E0AAF1170600E0761C00254FF0004428
:1013100006E05B1E42F1FF3220EA030521EA0204E7
:10132000CAF10100B04206DA1B4903980843019054
:10133000002000900EE0039AC4F3D321E80A0A4388
:10134000164940EA44500A433146CDE90002684656
:1013500002F01EF8159810F0240F0BD01598C00756
:1013600015D13868DDE90012031D3B600068C0E953
:1013700000120CE002A8694601F0A4FF1598C0070E
:1013800005D13868029A011D396000680260404644
:10139000F0E6000002FCFFFF0000F07F0000F03FDD
:1013A0002DE9FF4F92461D4685B04FF00041DDE923
:1013B000124BDDE914727F1E01EA4B50414940F0A7
:1013C000FF4940EA0108002122F020004928049149
:1013D00002D04E2828D04CE03BA0012607C88DE85B
:1013E0000700A9690698641C88477F1E014606D439
:1013F0001DF8060018B121F0200181420BD0E969E7
:1014000006988847032E34D0082E32D06FF00100A2
:1014100009B0BDE8F08F761C032E01D0082EE0D174
:10142000601CCAF80000DCE7A9690698641C8847BC
:101430007F1E2AD420F02000412826D1A9690698D1
:10144000641C88477F1E20D420F020004E281CD129
:10145000A9690698641C88477F1E48F4002849F44F
:101460008009CAF8004001D4282806D0E969069806
:1014700088475FEACB7012D022E0A9690698641C05
:1014800088477F1E01D4002803DAE9690698884757
:10149000BCE72928F1D1641CCAF80040E9E71BF039
:1014A000240F07D028680499031D2B600068C0E949
:1014B000001805E02868021D2A600068C0F8009046
:1014C0002046A5E70000F07F494E46494E49545951
:1014D0000000000001491820ABBEFEE72600020014
:1014E0003A2800D2303820F02002412A01D3A2F15C
:1014F0003700884201D34FF0FF307047704700003B
:10150000FEE700002DE9F04F85B040F2000BC2F27B
:10151000000B4FF0FF31CBE90111077840F2D80AF8
:10152000002FC2F2000A00F00C814FF0FF390021B9
:101530000390019009E000BF01980499091A475CE3
:101540004218002F039200F0F1800291A7F13001C0
:10155000C9B20A2912D2039804A901F091FFDBF85D
:101560000490B9F1120FE7DC09F101090AEBC90295
:10157000CBF804904AF839005160DDE7F9B22A3916
:10158000052900F2CE80012000FA01F212F02B0FA3
:1015900000F0B280DBF80880B8F1000F04D5B7E0A6
:1015A00018F1010000F0B08040F27810C2F20000A3
:1015B00010F80800A0F12A02D0B2052806D844F29B
:1015C0003011C0F6000151F8201000E0002103980E
:1015D0000778A7F12A03DBB2052B09D844F23010B3
:1015E000C0F6000050F82330994205D288E000BFD1
:1015F00000239942C0F08480B9F1000F04D5002780
:1016000000250024002614E00AEBC9015AF83970BD
:101610004D68A9F10100B9F1000FCBF8040061D0C9
:101620000AEBC0015AF830404E68A9F10209CBF824
:101630000490A8F10108052A4FF00000CBF80880BB
:1016400054D80021DFE802F0041A400E402600BF03
:10165000384629462246334602F04CFAB9F1120FB9
:1016600036DD9DE7204631463A462B4602F076FBB2
:10167000B9F1120F3FF794AF2AE000BF3846294670
:101680002246334601F06AFFB9F1120F3FF788AFE7
:101690001EE000BF384629460022002302F04CFC21
:1016A000DA468346204631463A462B4602F012F887
:1016B000BBF1000FD34640F2D80AC2F2000A4FF045
:1016C00000021CBF11461046B9F1120F3FF768AF78
:1016D00009F101090AEBC902CBF804904AF8390074
:1016E00051605DE700244FF0FF398BE70021B9F12D
:1016F000120F3FF755AFEBE704293FF42CAF10E092
:10170000B8F1130F04D30CE003984FF0FF380778BB
:1017100040F2781008F10101C2F20000CBF8081085
:10172000475402990198013109E700BFDBF808002E
:10173000002806D401F04CF8DBF80800B0F1FF3FB8
:10174000F8DCDAE9000105B0BDE8F08F7047000071
:10175000B0B5044600F01EF9054640F21C00C2F286
:1017600000000078611C18BF044400BF00F012F9AB
:10177000401BA042FAD3B0BD2DE9F04F82B00E68F5
:10178000002E00F0FD8041F20042C4F20102042369
:1017900040F2004E904208BF03234FF6FF7CC4F294
:1017A000010E009300240123C1F2100C4FF0000A37
:1017B0004FF000094BE000BF41F20002C4F2010209
:1017C000009F904208BF022704F00C030F229A40AA
:1017D0002BEA020207FA03F34FEA9A051A4346F886
:1017E00025204E6840F20C45F202DEF8082054BF76
:1017F00022EA080242EA0802C4F20105CEF80820F3
:101800002A68B30254BF22EA080242EA08022A60A8
:10181000B303DEF8042054BF22EA080242EA0802B9
:10182000F303CEF80420DEF800204FF0010354BF8C
:1018300022EA080242EA0802CEF800200E680AF105
:10184000010A36FA0AF204F1040400F0998003FA5E
:101850000AFB16EA0B08F1D04E68664512DC122E20
:1018600056D8DFE806F0350B4D49555555555555B9
:101870005555555555555545510000BFD1F80C905B
:1018800046E000BF4FF6FF72C1F2210296420FDC24
:101890000022C1F2110296421AD00022C1F21202B5
:1018A000964215D00022C1F22102964210D02FE0BC
:1018B0000022C1F2220296420AD00022C1F2310275
:1018C000964205D00022C1F23202964220D100BFDA
:1018D0008A684AB1012A14BFC0F814B0C0F810B029
:1018E0004FF0080914E000BF4FF0040910E000BFFA
:1018F000CA6802F104090BE04FF0000908E000BFDC
:10190000CA6802F1080903E0CA6802F10C0900BFC5
:1019100002462646B8F5807F24BF0432203E176871
:101920000F25B54027EA050509FA06F63543156087
:10193000CA79D2067FF582AF41F21803C4F20203DE
:101940001A68AEF57E7642F001021A601A6802F05B
:1019500001020192019A2AF0030256F802B040F601
:101960000002C4F20102904208D040F60042C4F2E4
:10197000010290427FF420AF012725E7002723E7EB
:1019800002B0BDE8F08F0000002A08BF0904016121
:101990007047000040F28C10C2F2000000687047EF
:1019A00040F21C0040F28C11C2F20000C2F20001B1
:1019B00000780A68104408607047000080B542F261
:1019C0000000C4F20200016841F010010160032030
:1019D00000F07AF80F2000F005F800F027F800205A
:1019E00080BD000070B540F21C06C2F2000640F255
:1019F00024013278C2F200014FF47A730968B3FB14
:101A0000F2F20446B1FBF2F1084600F04BFB0F2C5A
:101A10004FF0010508D838B94FF0FF3021460022B9
:101A2000002500F025F87460284670BD82B041F2B0
:101A30001800C4F202000168022241F001010160B5
:101A4000016801F0010101910199416841F0805163
:101A50004160406800F08050009000980420C4F27B
:101A60000100016862F31A61016002B07047000072
:101A700010B54EF60C5CCEF2000CDCF80030C3F36F
:101A8000022E8EF00704042C28BF0424BEF10303A9
:101A90004FF0FF3E0EFA04F438BF0023A1439940F3
:101AA0000EFA03F39A43114300F00F0200F1604372
:101AB0000901043A03F564436244002848BF02F177
:101AC0000C03197010BD00004EF60C51CEF200014F
:101AD0000A684FF6FF031A4060F30A2242F0806062
:101AE00040F0FD7008607047002804BF0120704777
:101AF0002DE9F04381B042F20008C4F20208044626
:101B0000D8F800000D4600F0070081420CD9D8F843
:101B1000000020F007002843C8F80000D8F80000B3
:101B200000F00700A8426CD1206841F20409810747
:101B3000C4F2020917D5410705D5D9F8001041F4C0
:101B4000E061C9F80010010705D5D9F8001041F48B
:101B50006051C9F80010D9F80010A26821F0F00116
:101B60001143C9F80010C00742D1D8F8000000F0B6
:101B7000070085420CD2D8F8000020F00700284367
:101B8000C8F80000D8F8000000F00700A84238D1DB
:101B90002068410707D5D9F80010E26821F4E06118
:101BA0001143C9F80010000708D5D9F800002169D1
:101BB00020F4605040EAC100C9F80000D9F80020C4
:101BC00002F00C00082841F20020C0F27A004DD14A
:101BD00044F24A73C2F38341C0F60003595CD20356
:101BE00038D440F60010C0F23D0048433EE000BF4C
:101BF000606859F8041C022808D0012826D18903FE
:101C000006D4012001B0BDE8F08300BF8901F8D5FA
:101C1000D9F8001021F003010843C9F80000FFF7CC
:101C2000B9FE064641F28837D9F80000616800F035
:101C30000C00B0EB810F98D0FFF7ACFE801BB842D0
:101C4000F2D9032001B0BDE8F08300BF8907D8D5E1
:101C5000DEE700BFD9F8002044F25813C2F3404237
:101C6000C0F600039A5C4843B0FBF2F0D9F80010CC
:101C700044F24812C1F30311C0F60002515C40F275
:101C8000240220FA01F140F22000C2F200000068B4
:101C9000C2F200021160FFF7A5FE002001B0BDE80E
:101CA000F0830000002804BF012070472DE9F041B7
:101CB00082B00446007841F20006C007C4F2020672
:101CC0000CD0706800F00C00042840F0818030686F
:101CD000800303D56068002800F0468120788007E3
:101CE0001BD5706810F00C0F09D0706800F00C0064
:101CF000082840F087807068C00300F18380306856
:101D0000800703D52069012840F02E813068616981
:101D100020F0F80040EAC10030602078000713D4BA
:101D2000207840072CD4E569002D00F018817068F8
:101D300000F00C00082840F0A780012D40F004813D
:101D4000012002B0BDE8F081A069002800F0848085
:101D50000020C4F242200121C0F88014FFF71AFECF
:101D6000054600BF706A800700F1B280FFF712FEDF
:101D7000401B0228F6D9032002B0BDE8F08100BF65
:101D8000F0695FEAC00808D4F06940F08050F06163
:101D9000F06900F080500090009847F20007C4F20C
:101DA00000073868C00549D4386840F4807038604E
:101DB000FFF7F0FD054600BF3868C0053ED4FFF7C9
:101DC000E9FD401B6428F7D9032002B0BDE8F0818B
:101DD000706800F00C00082803D17068C0033FF55C
:101DE00076AF61683068002900F00C81B1F5A02F52
:101DF00000F00081B1F5803F40F01A8140F480305E
:101E00001CE100BF2069002840F20000C4F242201B
:101E100000F0888001210160FFF7BCFD054600BF8E
:101E2000306880073FF572AFFFF7B4FD401B022812
:101E3000F6D9032002B0BDE8F08100BFE168306A46
:101E4000002900F09D80052900F09280012940F0D2
:101E5000AF8040F00100B1E00020C4F24220002138
:101E6000C0F88014FFF796FD054600BF706A800732
:101E70007FF556AFFFF78EFD401B0228F6D90320F1
:101E800002B0BDE8F08100BF0027C4F24227002065
:101E90003866FFF77FFD022D05460DD130688001C1
:101EA00040F1DE80FFF776FD401B02284FF0030073
:101EB000F4D902B0BDE8F081306880014FD5FFF75A
:101EC00069FD401B02284FF00300F5D9F1E700BF80
:101ED00040F22400C2F20000006844F6D351C1F27F
:101EE0006201A0FB0101480A019000BF00BF0198F8
:101EF000411E002801913FF413AF00BF0198411E1D
:101F0000002801913FF40CAF00BF0198411E00284A
:101F100001913FF405AF00BF0198411E00280191D7
:101F2000E4D1FDE600210160FFF734FD054600BF66
:101F3000306880077FF5F1AEFFF72CFD401B0228CB
:101F40004FF00300F4D9B4E77068216A00F48032DE
:101F50008A4209D1616A00F47010884204D10020DD
:101F600002B0BDE8F08100BF012002B0BDE8F08101
:101F700040F004003062306A40F001001EE000BF13
:101F800020F001003062306A20F004003062FFF778
:101F900001FD054641F28837306A800720D5FFF7FA
:101FA000F9FC401BB8424FF00300F5D981E700BFB0
:101FB00020F001003062306A20F004003062FFF748
:101FC000E9FC054641F28837306A800708D4FFF7FC
:101FD000E1FC401BB842F7D9032002B0BDE8F08114
:101FE000B8F1000F3FF59FAEF06920F08050F0612E
:101FF00099E600BF40F480203060306840F48030C3
:102000001CE000BF20F480303060306820F4802075
:102010003060FFF7BFFC0546306880037FF55EAE99
:10202000FFF7B8FC401B64284FF00300F4D940E7E9
:1020300020F480303060306820F480203060FFF77A
:10204000A9FC0546306880033FF548AEFFF7A2FCC7
:10205000401B6428F6D9032002B0BDE8F08100BF20
:10206000206AB0F5803F05D17168A26821F4003183
:10207000114371607168626A21F47411114308435D
:10208000706001203866FFF785FC044630688001E7
:102090003FF565AFFFF77EFC001B02284FF0030001
:1020A000F4D906E7411E0020B0EB116F1CBF0120E0
:1020B00070474EF21002CEF2000251604EF62351EC
:1020C000CEF20001F0230B70072190601160704781
:1020D000FEE700002DE9F04385B0002741F218002B
:1020E000CDE90377CDE90177C4F20200016840F63B
:1020F000000541F0100101600168C4F2010501F022
:102100001001009100990168012241F02001016055
:1021100001680F2601F020010091009901684FF03D
:10212000010841F004010160016801F0040100911F
:102130000099016841F00801016000680F2100F07A
:102140000800009000982846FFF71EFC05F5806403
:102150002046032101224FF00309FFF715FCCDE9CA
:102160000168022001AE0490284631460397FFF72C
:1021700003FBF02001A981E8810128463146FFF7E1
:10218000FBFA112002A981E8010320463146CDF86F
:102190000490FFF7F1FA05B0BDE8F083FEE7000018
:1021A000FEE7000070B540F600440025C4F20104CB
:1021B00045F0B000C0B200F09DF9102000F09AF98F
:1021C0000020002600F096F9204602210122FFF7A8
:1021D000DBFB204601210122FFF7D6FB204602212E
:1021E0000022FFF7D1FB204601210022FFF7CCFBA4
:1021F000782000F021F8402000F01EF8002000F0C8
:102200001BF8204602210022FFF7BEFB20460121D9
:102210000122FFF7B9FB204602210122FFF7B4FBA0
:10222000701C46B2B6F1FF3FCEDCE8B2013507289C
:1022300028BF70BDBCE70000B0B540F60044C4F252
:102240000104054600F0800220460221FFF79CFBB6
:10225000204601210122FFF797FB204601210022A1
:10226000FFF792FB05F0400220460221FFF78CFBAE
:10227000204601210122FFF787FB20460121002291
:10228000FFF782FB05F0200220460221FFF77CFBCE
:10229000204601210122FFF777FB20460121002281
:1022A000FFF772FB05F0100220460221FFF76CFBDE
:1022B000204601210122FFF767FB20460121002271
:1022C000FFF762FB05F0080220460221FFF75CFBE6
:1022D000204601210122FFF757FB20460121002261
:1022E000FFF752FB05F0040220460221FFF74CFBEA
:1022F000204601210122FFF747FB20460121002251
:10230000FFF742FB05F0020220460221FFF73CFBEB
:10231000204601210122FFF737FB20460121002240
:10232000FFF732FB05F0010220460221FFF72CFBEC
:10233000204601210122FFF727FB20460121002230
:10234000FFF722FB204601210122FFF71DFB20465B
:1023500001210022BDE8B040FFF716BB80B5AE20DA
:1023600000F0C8F8D52000F0C5F8802000F0C2F8D1
:10237000A82000F0BFF83F2000F0BCF8D32000F008
:10238000B9F8002000F0B6F8402000F0B3F8A12022
:1023900000F0B0F8C82000F0ADF8DA2000F0AAF89C
:1023A000122000F0A7F8812000F0A4F8CF2000F060
:1023B000A1F8D92000F09EF8F12000F09BF8DB2076
:1023C00000F098F8302000F095F8A42000F092F882
:1023D000A62000F08FF88D2000F08CF8142000F07B
:1023E00089F8AF2000F086F8BDE88040FFF7DABE3C
:1023F0002DE9F04780467E2000EB480017466FF03D
:10240000070240F0B00002EBC104C0B2E5B200F038
:1024100071F8280900F11009484600F06BF804F043
:10242000080A504600F066F844F25A10C0F6000060
:1024300000EB07114FF60060CFF6FF70085CA1F5C6
:10244000007600F08BF87078B778F478357900F082
:1024500085F8384600F082F8204600F07FF82846DC
:1024600000F07CF8707900F079F8B07900F076F837
:10247000F07900F073F84FF0FF3000EB480040F0C7
:10248000B000C0B200F036F8484600F033F85046CD
:1024900000F030F8307A00F061F8707A00F05EF801
:1024A000B07A00F05BF8F07A00F058F8307B00F07A
:1024B00055F8707B00F052F8B07B00F04FF8F07BDD
:1024C000BDE8F04700F04AB8F0B581B01446127884
:1024D0006AB10D46064600277819C1B2D2B230461D
:1024E000FFF786FF0137F8B2225C002AF4D101B071
:1024F000F0BD0000B0B540F60044C4F2010405464A
:10250000204602210122FFF73FFA20460121012245
:10251000FFF73AFA204602210022FFF735FA20465B
:1025200001210022FFF730FA7820FFF785FE002016
:10253000FFF782FE2846FFF77FFE20460221002299
:10254000FFF722FA204601210122FFF71DFA20465B
:1025500002210122BDE8B040FFF716BAB0B540F63F
:102560000044C4F201040546204602210122FFF77F
:102570000BFA204601210122FFF706FA204602212C
:102580000022FFF701FA204601210022FFF7FCF9A3
:102590007820FFF751FE4020FFF74EFE2846FFF758
:1025A0004BFE204602210022FFF7EEF920460121D2
:1025B0000122FFF7E9F9204602210122BDE8B040DF
:1025C000FFF7E2B97047000070470000FFF7E8B975
:1025D00070470000FEE70000B0B540F60805C4F201
:1025E0000105686840F2000440F00F006860686808
:1025F000C2F2000420F0010068602868C00609D417
:102600000520FFF7A5F82868C00603D400210020A4
:10261000CBE000BF2868800608D40520FFF798F8B3
:102620002868800602D401200021BEE02868400608
:1026300008D40520FFF78CF82868400602D4022051
:102640000021B2E02868000608D40520FFF780F8D2
:102650002868000602D403200021A6E0686840F044
:1026600001006860686820F0020068602868C006A1
:1026700008D40520FFF76CF82868C00602D40020B3
:10268000012192E02868800608D40520FFF760F851
:102690002868800602D40121012086E028684006CF
:1026A00008D40520FFF754F82868400602D4022019
:1026B00001217AE02868000608D40520FFF748F8D1
:1026C0002868000602D4032001216EE0686840F00B
:1026D00002006860686820F0040068602868C0062E
:1026E00008D40520FFF734F82868C00602D400207B
:1026F00002215AE02868800608D40520FFF728F850
:102700002868800602D4012002214EE02868400695
:1027100008D40520FFF71CF82868400602D40221DF
:10272000022042E02868000608D40520FFF710F8D0
:102730002868000602D40320022136E0686840F0D1
:1027400004006860686820F0080068602868C006B7
:1027500008D40520FEF7FCFF2868C00602D400203C
:10276000032122E02868800608D40520FEF7F0FF48
:102770002868800602D40120032116E0286840065C
:1027800008D40520FEF7E4FF2868400602D40220A2
:1027900003210AE02868000612D40520FEF7D8FFBE
:1027A000286800060CD40321032004EB81010844AF
:1027B000007B2178884204BF2020B0BD2070B0BDCE
:1027C000686840F00800686020202070B0BD0000FC
:1027D0002DE9F04F81B040F20009C2F20009D9F8AA
:1027E000044040F2D80A002CC2F2000A16D40AEBC8
:1027F000C4015AF834B04D68601E002CC9F80400BA
:1028000034D00AEBC0015AF830604F68023CC9F876
:102810000440D9F80800002809D52FE04FF0000B3C
:10282000002500260027D9F80800002826D440F209
:102830007812C2F20002411E105CC9F80810A0F123
:102840002A02052A4FF0000054D80021DFE802F0E8
:102850000426441C443000BF5846294632463B46B5
:1028600001F048F9122C39DD40E000BF00264FF09E
:10287000FF340027D9F808000028D8D5002000210F
:10288000122C2BDD32E000BF304639465A462B462B
:1028900001F064FA122C21DD28E000BF58462946D9
:1028A00032463B4600F05AFE122C17DD1EE000BFF8
:1028B000584629460022002301F03EFB8046304660
:1028C00039465A462B4600F005FFB8F1000F4FF08D
:1028D00000021CBF11461046122C07DC621C0AEBDA
:1028E000C203C9F804204AF83200596001B0BDE8BB
:1028F000F08F00BF0021122CF0DDF7E790B0FFF75A
:102900005DF800240120CDE90B44CDE9094406908F
:102910000A904FF4E0104FF4803102250F9006A882
:10292000CDE90714CDE90D51FFF7BCF920B1EFF364
:10293000108072B6FEE700BF0F20CDE901054FF40D
:102940008060CDE9040401A802210394FFF7CCF8CC
:1029500020B1EFF3108072B6FEE700BFFFF7BAFBBD
:10296000FFF7FCFCFFF71EFC40F29007C2F20007E5
:1029700040F2280444F25A79C2F2000407F1080A2E
:102980000FF28C0806AE4FF0000BC0F600090DE008
:102990005046FEF7B7FD02460B4630464146FDF76E
:1029A0003BFC022001213246FFF78EFDFEF7F2FFCD
:1029B0007968401A1528F9D3FEF7ECFF7860FFF725
:1029C0000BFE20282070F1D03D28E1D043280DD106
:1029D000384600F808BB4021FDF766FCFFF7E2FB34
:1029E000012001214A46FFF76FFDDFE739783B29D7
:1029F000DCD84A1C3D4605F8082B685405F802B09F
:102A0000FFF7D0FB012001212A46FFF75DFDCDE74E
:102A10003D2567005FEA400C08BF91F0000F4FEAC8
:102A20008C234FEAC12243EA51514FEA1C5018BF90
:102A300000F5F0404FEA300018BF41F000415FEA76
:102A40006C5C00F02980BCF1FF3F08BF40F0804083
:102A50007047130C06BF12044FF0100C4FF0000C1F
:102A6000130E04BF12020CF1080C130F04BF120165
:102A70000CF1040C930F04BF92000CF1020CD30F65
:102A800004BF52000CF1010C11464FF00002A0F1FE
:102A90001F00A0EB0C00704711F0004F08BF7047FB
:102AA00031F000413FF4D5AF0B0C06BF09044FF0E5
:102AB000100C4FF0000C0B0E04BF09020CF1080CB7
:102AC0000B0F04BF09010CF1040C8B0F04BF89002C
:102AD0000CF1020CCB0F04BF49000CF1010CCCF13E
:102AE000200322FA03F341EA030102FA0CF2A0EBFD
:102AF0000C0000F10100704723F07F4720F07F4C6D
:102B000080EA030000F00040ACEB070303F57C53C0
:102B100003F1FF032DE9804909B44FEA144324EA85
:102B200003484FEA154B25EA0B4E0FF2042606EB3D
:102B300013273E7803FB0667C7F5000707FB06F679
:102B40004FEAD64606F102064FEA543707FB066CF9
:102B5000CCF1005C4FEA1C472CEA074C0CFB06F555
:102B600007FB06F404EB15464FEA961649085FEAA0
:102B7000320234BF00204FF000404FEAD13706FB4D
:102B800007FC4FEA1C4C0CFB0BF7D21B03FB0CF7AA
:102B900061EB07010CFB0EF7B0EB074072EB17423D
:102BA0000CFB08F734BFA2EB0742B2EB074261EB24
:102BB00017414FEA0C444FEA910706FB07FC4FEA26
:102BC0001C4C0CFB0BF7B0EBC74072EB573203FB0E
:102BD0000CF734BFA2EBC742B2EBC74261EB5731EF
:102BE0000CFB0EF7B0EBC70072EB57720CFB08F74B
:102BF00034BFA2EBC702B2EBC70261EB57714FEAD9
:102C0000816141EA92114FEA826242EA90124FEAF0
:102C1000806004EBCC04039F4FEAD13706FB07FC2E
:102C20004FEA1C4C0CFB0BF7D21B03FB0CF761EBC0
:102C300007010CFB0EF7B0EB074072EB17420CFBE1
:102C400008F734BFA2EB0742B2EB074261EB174132
:102C50004FEA8C5504EB9C244FEA910706FB07FCD6
:102C60004FEA1C4C0CFB0BF7B0EBC74072EB573232
:102C700003FB0CF734BFA2EBC742B2EBC74261EBD8
:102C800057310CFB0EF7B0EBC70072EB57720CFB21
:102C900008F734BFA2EBC702B2EBC70261EB577172
:102CA0004FEA816141EA92114FEA826242EA901250
:102CB0004FEA806015EB4C2544F100044FEAD13710
:102CC00006FB07FC4FEA1C4C0CFB0BF7D21B03FB6B
:102CD0000CF761EB07010CFB0EF7B0EB074072EB52
:102CE00017420CFB08F734BFA2EB0742B2EB0742D6
:102CF00061EB17414FEA813141EA92414FEA82325A
:102D000042EA90424FEA80304FEA0C7615EB1C15F0
:102D100044F1000448EA03434EEA0B484FF0000E2A
:102D2000B2EB080C71EB030724BF624639464EEB49
:102D30000E0E4FF0000B0018524149414BEB0B0BAC
:102D4000B2EB080C71EB03077BF1000B24BF62466A
:102D500039464EEB0E0E4FF0000B00185241494120
:102D60004BEB0B0BB2EB080C71EB03077BF1000B89
:102D700024BF624639464EEB0E0E51EA020718BFD9
:102D800046F0010616EB0E7655F1000254F10001F3
:102D900003D5BDE88901BDE80088BDE88901BDE82B
:102DA0000048B619524141EB0101A3F101037047FC
:102DB00080807F7E7D7C7B7A797877767675747378
:102DC000727171706F6E6E6D6C6C6B6A6A69686837
:102DD000676666656464636362616160605F5F5ECD
:102DE0005E5D5D5C5C5B5B5A5A5959585857575643
:102DF00056555555545453535252525151505050A8
:102E00004F4F4F4E4E4D4D4D4C4C4C4B4B4B4A4AF9
:102E10004A4949494848484747474746464645453D
:102E20004544444444434343434242424241414176
:102E300010B546EA06464FEA164646EA42564FEABB
:102E4000D22242EA41524FEAD121A3F57053A3F1B5
:102E5000010300F02FF820F0004000F0004700F1DF
:102E6000020CBCF5006F01EB0050114640EA070070
:102E700000D210BDBAF1000F0AD01CB503B44FF058
:102E800004004FF004014FF000000FBCBDE81040FB
:102E90004FF00001BBF1010FB9BF04484FF0FF3103
:102EA0000348002140EA070010BD00BFFFFFEF7F8D
:102EB0000000F07F9C46002B30D477002BD04FEAE7
:102EC00037071CB503B44FF010004FF01001BAF1F2
:102ED000000F06D0BCF1000FDCBF40F0080040F04E
:102EE00008014FF000000FBCBDE810400BF1010BD2
:102EF000BBF1010F08BF5FEA170722BF12F1010201
:102F000011F101014FF0004143F1000300F00040D6
:102F100043EA00007047F9D35708D0E746EA06466F
:102F20004FEA164613F1400F1FDD13F1200FDFBFEC
:102F300016430A46002120335B42BED0C3F120076E
:102F400046EA06464FEA164602FA07F746EA070639
:102F500022FA03F2C3F1200701FA07F742EA070257
:102F600021FA03F14FF00003A7E746EA020646EA1A
:102F700006464FEA164646EA0106BCBF46EA064642
:102F8000360C4FF000034FF000024FF0000194E7C1
:102F90002DE9804C70B49A46934691E8380007C8F2
:102FA00031EA400C48BF34EA430C03D5FFF7A4FDD7
:102FB000FFF780FFF0BCBDE8008C2DE9804C70B4B9
:102FC0009A46934691E8380007C831EA400C48BF5A
:102FD00034EA430C03D5FFF78FFDFFF729FFF0BC60
:102FE000BDE8008C2DE9804C70B49A46934691E878
:102FF000380007C810F0804F08BF13F0804F03D18E
:1030000000F01AF8FFF756FFF0BCBDE8008C2DE980
:10301000804C70B49A46934691E8380007C810F087
:10302000804F08BF13F0804F03D100F005F8FFF781
:10303000FFFEF0BCBDE8008C20F07F4723F07F4C02
:1030400080EA030000F0004007EB0C03A3F57C537B
:10305000A3F1FE0392F0000F00F0B38095F0000F93
:1030600000F077802DE901494FEA114021EA00483C
:103070004FEA144624EA064700FB06FC08FB06F666
:1030800007FB08F818EB06484CEB164C00FB07F75B
:1030900018EB07484CEB17404FEA124B22EA0B4E55
:1030A0004FEA154625EA06470BFB06FC0EFB06F623
:1030B00007FB0EFE1EEB064E4CEB164C0BFB07F708
:1030C0001EEB074E4CEB174B18EB0B0840F10000C2
:1030D00018EB0E0B58EB000840F100008F1A4FF070
:1030E00000014FF000063CBFC943661B14BFB5EB9F
:1030F000040C00213CBFC943F61B4FEA174427EAE2
:1031000004454FEA1C472CEA074C04FB076205FB09
:1031100007F70CFB05F616EB074642EB174204FBDC
:103120000CFC16EB0C4642EB1C421BEB060658EB64
:10313000020241414EEA8E0E46EA9E0601D5BDE8E6
:103140000189B619524141EB0101A3F10103BDE828
:1031500001894FEA144524EA05464FEA114721EA5E
:10316000074C05FB07F406FB07F70CFB06F111EB18
:10317000074144EB174405FB0CFC11EB0C4144EBFD
:103180001C444FEA124722EA074C05FB07F206FBF4
:1031900007F70CFB06F616EB074642EB174205FB5A
:1031A0000CFC16EB0C4642EB1C456A1854F100016E
:1031B00048BF7047B619524141EB0101A3F1010329
:1031C000704795F0000F37D04FEA114221EA0246CE
:1031D0004FEA144724EA074C02FB07F106FB07F706
:1031E0000CFB06F414EB074441EB174102FB0CFC0B
:1031F00014EB0C4441EB1C414FEA154725EA074C00
:1032000002FB07F506FB07F70CFB06F616EB074675
:1032100045EB174502FB0CFC16EB0C4645EB1C423C
:10322000121951F1000148BF7047B619524141EBE4
:103230000101A3F1010370474FEA144524EA054652
:103240004FEA114721EA074C05FB07F106FB07F798
:103250000CFB06F212EB074241EB174105FB0CFC9D
:1032600012EB0C4251EB1C414FF0000648BF704777
:10327000921841EB0101A3F101037047490050EAA4
:10328000C12018BF04204A0D18BF40F0010040F2D1
:10329000FF72B2EB515F08BF40F00200012808BF87
:1032A0000520704740F2013200204FF0E04100F06D
:1032B000A9BE0000024A0020110700F0A3BE0000D2
:1032C00001FDFFFF10B50446D1E9000100F002F84E
:1032D000206010BDF8B504460D466A4600F06AF855
:1032E00000987E30009000281EDC00221346204605
:1032F000294600F04BFB17D0002140F608004FF0A4
:10330000000006462046294600F0F6F8044640F63E
:10331000080006EA00014FF0000034F0004004BF4E
:103320000220FDF7A7FE29E00098FF2828DB0021F6
:1033300008464FF0000000F44006002213462046E5
:10334000294600F0D5FC8CBF002501250220FDF7A1
:1033500091FE4FF0FF4446B1002D0CBF4FF400002A
:103360004FF48000B04218BF084C042108464FF0CB
:103370000000002D04BF84F00040F8BD2046F8BDD9
:1033800020462946BDE8F84000F0B6B8FFFF7F7F31
:1033900010B504460A46D4E90003194600F036F891
:1033A000C4E9000110BD30380A2801D2012070475D
:1033B0000020704710B5144600222260114A21F007
:1033C00000439342A8BF10BD53EA000208BF10BDDE
:1033D000B3F5801FA8BF226807DA362200F012FE7C
:1033E0006FF0350221F000432260DFF81CC06FF35C
:1033F0001E510CEB23531A4441F0FF5141F0005190
:10340000226010BD0000F07F02FCFFFF2DE9F041BB
:1034100006460C4640F2FF75174635EA14502BD08D
:1034200000221346304600F0B1FA25D03A46304625
:10343000214600F0E7FD06460C4635EA145010D050
:1034400000221346304600F0A1FA15D10220FDF704
:1034500011FEFFF72FFF0A46214662F31E01BDE869
:10346000F0810220FDF706FEFFF71CFF0A46214609
:1034700062F31E01BDE8F08130462146BDE8F081CF
:1034800000B583B00A460021CDE9001101460123B1
:103490006846FDF781F9DDE9000103B000BD0000D9
:1034A00010B500290AD00878002807D005487844CC
:1034B000FDF784FD002801D0002010BD02487844AB
:1034C00010BD0000E2120000DA12000010B5002961
:1034D0000AD00878002807D005487844FDF76EFD2B
:1034E000002801D0002010BD0248784410BD000023
:1034F000D2120000CA12000021F0004201F0004385
:10350000A2F16052B2F5801F28BFD2F17F6C0BD9B7
:103510005FEA001C43EAC20242EB507018BF7047DA
:1035200028BF20F001007047B2F5801FBCBF1846CD
:1035300070474FEA410C1CF5001F02D2084600F00C
:1035400025BD70B500F080FB00000089FFF7F6BFD5
:103550004FF00040A0F580007047000010B591EAE0
:10356000030F48BF83F0004300F10084841A71EB1D
:10357000030C05D2121943EB0C03001B61EB0C0189
:103580004FEA1154A4EB135CDFF81CE11EEA430F71
:1035900018BF9EEA445F00F0748021EA045123EAD8
:1035A0000E0343F48013DCF1200E32D322FA0CFE1A
:1035B00010EB0E0023FA0CFE41EB0E01CCF1200EB5
:1035C00003FA0EFE10EB0E00CCF1200E51F10001BB
:1035D000B1F5801F32D201EB045112FA0EF2BDE8B0
:1035E000104058BF7047401C38BF5FEA420218BF06
:1035F0007047002814BF20F0010041F100014FEA9C
:10360000410313F5001F38BF7047A1F1C04100F01E
:1036100069BB012A43EB0302ACF1200CDCF11F0E65
:1036200032BF4FF0000E23FA0CF310EB030041EB16
:103630000451B4EB115FD0D0A1EB045101F580111E
:10364000490801EB04515FEA30000ED350F100004D
:1036500038BF12FA0EFE08D1BDE81040C9E7401C81
:1036600038BF5FEA4202CAD1C3E7BDE810404FEA63
:10367000410313F5001F38BF7047A1F1C04100F0AE
:1036800031BB9EEA445F08D011EA5E0FBDE81040EE
:1036900004BF01F0004100207047BDE8104070B544
:1036A00000F0D2FA64FBBE3E0000E0FF02494FF09A
:1036B000000000F075BC00BF0000F87F491058BF43
:1036C000C1F140415B1058BFC3F140438B42EFF35F
:1036D000008070472DE9C04130B4DFF8A8C23CEA51
:1036E000111418BF3CEA131400F0F0801CEA111406
:1036F00081EA030544EAD57418BF1CEA131500F0EB
:10370000CB80A4EB050404F17F7404F500344FF082
:10371000004545EAC12145EAC32341EA505143EA45
:1037200052534FEAC0204FEAC222994208BF90424A
:1037300000F0A0804FEA13650FF24816765D4FEA5D
:10374000134506FB05F7C7F1807706FB07F74FEA3D
:10375000D737A7FB03687642A7FB06CEC8F58038AB
:1037600038BFA8F1010807FB08E6A6FB028C4FF062
:10377000000EE6FB03CED8F100086FEA0C0C5CF1FA
:10378000000C6FEA0E0E4EF1004EA6FB0C584FF0E7
:103790000007E6FB0E87A1FB08C6A0FB07CE16EBD1
:1037A0000E064FF0000545F10005E1FB076515F138
:1037B000E04E7EBFA4F580345FEA46066D4116F107
:1037C000800745F100054FEA172747EA05674FEAEA
:1037D00015254FEA0666A6F1DE46B6F1805F20D9D0
:1037E000384605EBC47124F0010C01EB0C11BCF15F
:1037F000FE6F02D8F0BCBDE8008124425CBF01F539
:10380000801E9EEAC47F02D4F0BCBDE80081244241
:1038100000F13980A1F1C041F0BCBDE8004100F0E9
:1038200061BA4FEAD02040EA41504FEAD1214FEA35
:10383000D22242EA43524FEAD323A7FB028607FB78
:10384000036605FB02661EEA0E0F58BFA6EB005684
:10385000B6EB00564FEA520E4EEAC37E18EB0E0E40
:1038600056EB530EBCD518EB02085E417F1C55F198
:103870000005B5E74FF480154FF000074FF0000644
:103880004FF00008ACE701F1C04101F000414FF0FA
:103890000000F0BCBDE800810CEA131511EA0C1F12
:1038A00000D00CE013EA0C1F00F025804FF0000060
:1038B00081EA030101F00041F0BCBDE80081F0BCE9
:1038C000BDE8004181EA030100F00CBAF0BCBDE89C
:1038D000004170B500F0B8F9097EFC3E00F007B871
:1038E0004FF0000081EA030101F00041704781EAD6
:1038F000030100F0F7B9F0BCBDE8004122494FF0E8
:1039000000007047FFFDFBF9F7F5F4F2F0EEEDEB88
:10391000E9E8E6E4E3E1E0DEDDDBDAD8D7D5D4D3CD
:10392000D1D0CFCDCCCBCAC8C7C6C5C4C2C1C0BF19
:10393000BEBDBCBBBAB9B8B7B6B5B4B3B2B1B0AF1F
:10394000AEADACABAAA9A8A8A7A6A5A4A3A3A2A103
:10395000A09F9F9E9D9C9C9B9A99999897979695BE
:1039600095949393929191908F8F8E8E8D8C8C8B5A
:103970008B8A8989888887878685858484838382E2
:10398000828181800000FF070000F87F51EA030C6C
:1039900017D41CF5801F58BFBCF5801F00F10680AE
:1039A000994218BF704708BF9042704707D711F57A
:1039B000801F58BF13F5801F19D499427047894260
:1039C00070471CF5801F08D5BCF5801FF7D58B42CA
:1039D00018BF704708BF824270474FF4001C1CEBB1
:1039E000410F38BF1CEB430F01D28B42704770B5BB
:1039F00000F02AF9922449004FF000514FF0805313
:103A0000FFF75CBE51EA030C17D41CF5801F58BFAA
:103A1000BCF5801F00F10680994218BF704708BFAF
:103A20009042704707D711F5801F58BF13F5801FCC
:103A300019D499427047894270471CF5801F08D5F8
:103A4000BCF5801FF7D58B4218BF704708BF824274
:103A500070474FF4001C1CEB410F38BF1CEB430FA9
:103A600001D28B42704770B500F0EEF89224490005
:103A70004FF080514FF00053FFF720BE51EA030C86
:103A800017D41CF5801F58BFBCF5801F00F10680BD
:103A9000994218BF704708BF9042704707D711F589
:103AA000801F58BF13F5801F19D49942704789426F
:103AB00070471CF5801F08D5BCF5801FF7D58B42D9
:103AC00018BF704708BF824270474FF4001C1CEBC0
:103AD000410F38BF1CEB430F01D28B42704770B5CA
:103AE00000F0B2F8922449004FF000514FF080539B
:103AF000FFF7E4BD70B5DFF848C11CEA111E1EBF18
:103B00001CEA13159EEA0C0F95EA0C0F00F06F806B
:103B100081EA03044EEAD47EAE4421EA4C1123EA42
:103B20004C1341F4801143F48013AEF17F7EA1FB6E
:103B3000024CA0FB0365361955EB0C05A1FB034CA9
:103B40004CF10003A0FB021C16EB0C06654153F17F
:103B50000003094218BF46F0010613F4007F0BD1A1
:103B60004FEA03314FEA053041EA155140EA165059
:103B700034036FF003020AE04FEAC3214FEAC52085
:103B800041EA555140EA5650F4026FF0020202EB4E
:103B90002E4201EB025585EACE710AD05FEA440C51
:103BA00018BF24F0004450F1000041F1000120EA68
:103BB000D47040F2FE7C624500D270BDA84214BFB2
:103BC0004FF080444FF04044002E08BF0024BEF167
:103BD000806FA8BFA1F1C041BDE8704080F2828033
:103BE00001F1C04101F000414FF0000070470CEAC4
:103BF00013159EEA0C0F18BF95EA0C0F06D081EA48
:103C0000030E4FF000000EF0004170BD00F01CF8F4
:103C10008900013E00F007B800F009B84FEA430CF4
:103C20005FEA5C5C08D081EA030100F05BB84FEA10
:103C3000410C5FEA5C5CF6D102494FF0000070472E
:103C40000000FF070000F87F0EF1020E2EF0030EB9
:103C50005EF8046B364205D4012A43EB030515F5E3
:103C6000001F12D8012841EB010C1CF5001F0CD8D5
:103C70000ED14FEAD17C0CEB4C0C0CF1020C15F57B
:103C8000001F08BF4CEBD37C04E04FF0080C01E0B0
:103C90004FEAD37C0CEB4C0526FA05F606F0070636
:103CA000B6F1040C06D20EEB860CBDE870404CF069
:103CB000010C6047DFE80CF0090B02024FF00041F5
:103CC000A1F500214FF0000070BD194610460128F3
:103CD00051EB010418BFD4F5001484BF002001F09B
:103CE000004170BD0808A0F500114FEA310170478E
:103CF00053EA010C17D41CF5801F58BFBCF5801F78
:103D000000F106808B4218BF704708BF824270479F
:103D100007D713F5801F58BF11F5801F19D48B42A8
:103D200070479B4270471CF5801F08D5BCF5801F6B
:103D3000F7D5994218BF704708BF904270474FF4BB
:103D4000001C1CEB430F38BF1CEB410F01D2994202
:103D500070470FB40CBC03BCFFF7C1BE10B591EAAD
:103D6000030F48BF83F000433FF500AC841A71EBAA
:103D7000030C07D28CF0004C121943EB0C03001B10
:103D800061EB0C014FEA1154A4EB135CDFF8A4E1E2
:103D90001EEA430F18BF9EEA445F00F0B48021EA98
:103DA000045123EA6E035242C3EB6E0338BF5B1E1D
:103DB000DCF1200E25D322FA0CFE10EB0E0043FAA4
:103DC0000CFE41EB0E01CCF1200E03FA0EFE10EBBF
:103DD0000E00CCF1200E51F1000129D401EB045169
:103DE00012FA0EF2BDE8104058BF7047401C1CBFCD
:103DF000B2F1004F704700280CBF491C20F00100B1
:103E0000704712EB020E43EB030218BF4FF0010E96
:103E10004EEA4202ACF1200CDCF11E0E56D943FAF8
:103E20000CFE10EB0E00CCF11E0E51F1FF31D5D57A
:103E30000EF1010E12FA0EFE404141EB010101EBC1
:103E4000445C5FEA5C5C10D901EB045110EBDE705E
:103E500038BFBEF1004FBDE8104018BF70470028C2
:103E60000CBF491C20F00100704734D24FEAD42C1B
:103E700024F4006411F500111BD0B1FA81F20B3A61
:103E8000A41AA41ED2F12003914030FA03F319437F
:103E9000904001EBCC7101EB0451002CBDE81040C7
:103EA000A8BF704701F1C04101F000414FF0000090
:103EB0007047B0FA80F310FA03F102D1BDE8104068
:103EC0007047E41A173C4805C90AE2E701EB0451C0
:103ED000BDE81040704749104FEA300001EB045133
:103EE000BDE8104002E04FF0000170474A0008BFF3
:103EF0000042F8D0B2F5001F28BF704701F0004122
:103F00004FF0000070479EEA445F07D011EA5E0F51
:103F1000BDE8104004BF002100207047BDE81040FC
:103F200070B5FFF791FE00BF40DFF63E104683F00C
:103F3000004170470000E0FF10B5FFF727FD0CBF00
:103F40000120002010BD10B5FFF720FD14BF012097
:103F5000002010BD10B5FFF755FD8CBF01200020DB
:103F600010BD10B5FFF74EFD2CBF0120002010BD85
:103F700010B5FFF783FD94BF0120002010BD10B5E0
:103F8000FFF77CFD34BF0120002010BDFF2141EA76
:103F9000D050C00570474FF000007047FCF786BA5C
:103FA0000CF00F03092B08BF082000F05F800A2BDC
:103FB0000BD0082B18BF704708BF1CF0400F0AD069
:103FC0004FF000004FF0000170471CF0400F18BF89
:103FD0004FF0004070471CF0100F08D000F07F42F7
:103FE00020F0704342EAD3014FEA4370704700F07B
:103FF000604021F07F4242EA000201F07F4040EA47
:10400000727070474FF0FF0C4CF4E06C1CEA1153D7
:104010001CBF9CEA030C9445C2BFDA4201EB02517B
:104020007047002B0DD0BCF1000F0FD001F0004104
:10403000002AA4BF41F0E04141F07F614FF0000051
:10404000704701F000414FF00000704750EA013323
:104050004FF09B0C18BF4CF0806C7FF427AB70477F
:10406000FCF74CBEFDF70CB8FDF79AB91CF4801FA5
:1040700011D01CF4E02F03D06FEACC314900704717
:104080004FF04050EFF3008222F0704242EA00020B
:1040900082F3008870474FF0000070470240000034
:1040A000000000A00000000005400000000000C863
:1040B000000000000C4000000000409C00000000D8
:1040C000194000000020BCBE000000003440000089
:1040D000BFC91B8E00000004B5400000504BCFD07C
:1040E0006607E2CF010000006C4100003E8251AA49
:1040F000DFEEA73401000000D9420000DCB5A0E2E9
:104100003A301F97FFFFFFFFB4450000FD25A0C810
:10411000E9A3C14FFFFFFFFFFF3F00000000008049
:1041200000000000FF3F00000000008000000000D1
:10413000020000000100000000000000010000007B
:10414000000000000200000000000000000000006D
:104150000102030406070809010200000000000034
:1041600000000000000000000000000000F8000057
:104170000000000000333000000000100C06100C9E
:104180000600000000000000000040C07840C07839
:104190004000043F04043F040400007088FC083021
:1041A0000000001820FF211E0000F008F000E018B9
:1041B000000000211C031E211E0000F00888700072
:1041C00000001E2123241927211010160E000000C4
:1041D00000000000000000000000000000E01804E3
:1041E0000200000000071820400000020418E00050
:1041F00000000040201807000000404080F0804090
:1042000040000202010F01020200000000F0000065
:1042100000000101011F0101010000000000000079
:10422000000080B0700000000000000000000000EE
:104230000000000101010101010100000000000077
:10424000000000303000000000000000000080602E
:104250001804006018060100000000E010080810B3
:10426000E000000F102020100F00001010F80000D8
:1042700000000020203F202000000070080808886F
:10428000700000302824222130000030088888483F
:1042900030000018202020110E000000C02010F86F
:1042A000000000070424243F240000F80888880840
:1042B00008000019212020110E0000E01088881845
:1042C0000000000F112020110E0000380808C83827
:1042D00008000000003F0000000000708808088807
:1042E0007000001C222121221C0000E01008081090
:1042F000E0000000312222110F00000000C0C000C9
:1043000000000000003030000000000000800000CD
:1043100000000000806000000000000080402010CD
:1043200008000001020408102000404040404040C6
:104330004000040404040404040000081020408029
:10434000000000201008040201000070480808085E
:10435000F0000000003036010000C030C828E8102E
:10436000E0000718272423140B000000C038E000E9
:104370000000203C23020227382008F88888887033
:104380000000203F202020110E00C030080808083F
:104390003800071820202010080008F80808081026
:1043A000E000203F202020100F0008F88888E8084F
:1043B0001000203F20202320180008F88888E808F3
:1043C0001000203F200003000000C030080808381B
:1043D000000007182020221E020008F8080000082C
:1043E000F808203F210101213F20000808F80808B3
:1043F00000000020203F2020000000000808F808EE
:104400000800C08080807F00000008F888C028185D
:104410000800203F20012638200008F8080000008E
:104420000000203F20202020300008F8F800F8F895
:104430000800203F003F003F200008F830C000087F
:10444000F808203F200007183F00E0100808081077
:10445000E0000F10202020100F0008F808080808BE
:10446000F000203F210101010000E01008080810C1
:10447000E0000F18242438504F0008F888888888F6
:104480007000203F2000030C3020007088080808CE
:1044900038000038202121221C00180808F80808DC
:1044A00018000000203F2000000008F80800000865
:1044B000F808001F202020201F000878880000C86E
:1044C0003808000007380E010000F80800F800085E
:1044D000F800033C0700073C030008186880806868
:1044E000180820302C03032C30200838C800C838A6
:1044F00008000000203F2000000010080808C8380D
:1045000008002038262120201800000000FE0202AA
:1045100002000000007F40404000000C30C000005E
:104520000000000000010638C00000020202FE0088
:104530000000004040407F00000000000402020232
:104540000400000000000000000000000000000067
:104550000000808080808080808000020204000053
:10456000000000000000000000000000808080804B
:1045700000000019242222223F2008F80080800039
:104580000000003F112020110E00000000808080FC
:104590000000000E11202020110000000080808803
:1045A000F800000E112020103F2000008080808045
:1045B0000000001F222222221300008080F0888841
:1045C00088180020203F202000000000808080808C
:1045D0008000006B94949493600008F800808080C1
:1045E0000000203F210000203F200080989800001C
:1045F00000000020203F202000000000008098984C
:10460000000000C08080807F000008F800008080EB
:104610008000203F24022D302000000808F8000010
:1046200000000020203F20200000808080808080CB
:104630008000203F20003F20003F8080008080805D
:104640000000203F210000203F200000808080806B
:104650000000001F202020201F008080008080009C
:10466000000080FFA12020110E000000008080804B
:104670008000000E112020A0FF80808080008080BC
:10468000800020203F2120000100000080808080E9
:1046900080000033242424241900008080E08080DE
:1046A00000000000001F202000008080000000802B
:1046B0008000001F202020103F208080800000808C
:1046C000808000010E30080601008080008000809C
:1046D00080800F300C030C300F0000808000808041
:1046E00080000020312E0E3120008080800000806C
:1046F000808080818E70180601000080808080801C
:1047000080000021302C2221300000000000807C3D
:10471000020200000000003F404000000000FF00D7
:10472000000000000000FF0000000002027C80008A
:1047300000000040403F00000000000601010202AE
:104740000404000000000000000002030405060746
:1047500008090A0B0C0D0E0F1010526561647900E8
:10476000C048000800000020300000005001000890
:10477000F0480008300000206007000070010008C9
:10478000000000000000F07FFFFFFFFFFFFFEF7F52
:104790001C00000043000000F8FFFFFF0C000000B9
:1047A0000E0000000F0000002E00000010010000AD
:1047B00043000000F8FFFFFF004040404040404001
:1047C00040404141414141404040404040404040E4
:1047D0004040404040404040400502020202020288
:1047E00002020202020202020220202020202020D7
:1047F00020202002020202020202909090909090EB
:1048000010101010101010101010101010101010A8
:10481000101010100202020202028888888888881C
:104820000808080808080808080808080808080808
:104830000808080802020202400000000000000010
:104840000000000000000000000000000000000068
:104850000000000000000000000000000000000058
:104860000000000000000000000000000000000048
:104870000000000000000000000000000000000038
:104880000000000000000000000000000000000028
:104890000000000000000000000000000000000018
:1048A0000000000000000000000000000000000008
:1048B00000000000000000000000000000000000F8
:1048C00020000000FFFFFFFFFFFFFFFF3738392FF9
:1048D0003435362A3132332D43303D2B0100000070
:1048E0001000000000127A0020000000000000000C
:04000005080000ED02
:00000001FF
